   1              		.cpu cortex-m0plus
   2              		.fpu softvfp
   3              		.eabi_attribute 20, 1
   4              		.eabi_attribute 21, 1
   5              		.eabi_attribute 23, 3
   6              		.eabi_attribute 24, 1
   7              		.eabi_attribute 25, 1
   8              		.eabi_attribute 26, 1
   9              		.eabi_attribute 30, 6
  10              		.eabi_attribute 34, 0
  11              		.eabi_attribute 18, 4
  12              		.code	16
  13              		.file	"system_MKL25Z4.c"
  14              		.text
  15              	.Ltext0:
  16              		.cfi_sections	.debug_frame
  17              		.global	SystemCoreClock
  18              		.section	.data.SystemCoreClock,"aw",%progbits
  19              		.align	2
  22              	SystemCoreClock:
  23 0000 00004001 		.word	20971520
  24              		.section	.text.SystemInit,"ax",%progbits
  25              		.align	2
  26              		.global	SystemInit
  27              		.code	16
  28              		.thumb_func
  30              	SystemInit:
  31              	.LFB33:
  32              		.file 1 "../Project_Settings/Startup_Code/system_MKL25Z4.c"
   1:../Project_Settings/Startup_Code/system_MKL25Z4.c **** /*
   2:../Project_Settings/Startup_Code/system_MKL25Z4.c **** ** ###################################################################
   3:../Project_Settings/Startup_Code/system_MKL25Z4.c **** **     Processors:          MKL25Z128FM4
   4:../Project_Settings/Startup_Code/system_MKL25Z4.c **** **                          MKL25Z128FT4
   5:../Project_Settings/Startup_Code/system_MKL25Z4.c **** **                          MKL25Z128LH4
   6:../Project_Settings/Startup_Code/system_MKL25Z4.c **** **                          MKL25Z128VLK4
   7:../Project_Settings/Startup_Code/system_MKL25Z4.c **** **
   8:../Project_Settings/Startup_Code/system_MKL25Z4.c **** **     Compilers:           Keil ARM C/C++ Compiler
   9:../Project_Settings/Startup_Code/system_MKL25Z4.c **** **                          Freescale C/C++ for Embedded ARM
  10:../Project_Settings/Startup_Code/system_MKL25Z4.c **** **                          GNU C Compiler
  11:../Project_Settings/Startup_Code/system_MKL25Z4.c **** **                          GNU C Compiler - CodeSourcery Sourcery G++
  12:../Project_Settings/Startup_Code/system_MKL25Z4.c **** **                          IAR ANSI C/C++ Compiler for ARM
  13:../Project_Settings/Startup_Code/system_MKL25Z4.c **** **
  14:../Project_Settings/Startup_Code/system_MKL25Z4.c **** **     Reference manual:    KL25P80M48SF0RM, Rev.3, Sep 2012
  15:../Project_Settings/Startup_Code/system_MKL25Z4.c **** **     Version:             rev. 2.5, 2015-02-19
  16:../Project_Settings/Startup_Code/system_MKL25Z4.c **** **     Build:               b150224
  17:../Project_Settings/Startup_Code/system_MKL25Z4.c **** **
  18:../Project_Settings/Startup_Code/system_MKL25Z4.c **** **     Abstract:
  19:../Project_Settings/Startup_Code/system_MKL25Z4.c **** **         Provides a system configuration function and a global variable that
  20:../Project_Settings/Startup_Code/system_MKL25Z4.c **** **         contains the system frequency. It configures the device and initializes
  21:../Project_Settings/Startup_Code/system_MKL25Z4.c **** **         the oscillator (PLL) that is part of the microcontroller device.
  22:../Project_Settings/Startup_Code/system_MKL25Z4.c **** **
  23:../Project_Settings/Startup_Code/system_MKL25Z4.c **** **     Copyright (c) 2015 Freescale Semiconductor, Inc.
  24:../Project_Settings/Startup_Code/system_MKL25Z4.c **** **     All rights reserved.
  25:../Project_Settings/Startup_Code/system_MKL25Z4.c **** **
  26:../Project_Settings/Startup_Code/system_MKL25Z4.c **** **     Redistribution and use in source and binary forms, with or without modification,
  27:../Project_Settings/Startup_Code/system_MKL25Z4.c **** **     are permitted provided that the following conditions are met:
  28:../Project_Settings/Startup_Code/system_MKL25Z4.c **** **
  29:../Project_Settings/Startup_Code/system_MKL25Z4.c **** **     o Redistributions of source code must retain the above copyright notice, this list
  30:../Project_Settings/Startup_Code/system_MKL25Z4.c **** **       of conditions and the following disclaimer.
  31:../Project_Settings/Startup_Code/system_MKL25Z4.c **** **
  32:../Project_Settings/Startup_Code/system_MKL25Z4.c **** **     o Redistributions in binary form must reproduce the above copyright notice, this
  33:../Project_Settings/Startup_Code/system_MKL25Z4.c **** **       list of conditions and the following disclaimer in the documentation and/or
  34:../Project_Settings/Startup_Code/system_MKL25Z4.c **** **       other materials provided with the distribution.
  35:../Project_Settings/Startup_Code/system_MKL25Z4.c **** **
  36:../Project_Settings/Startup_Code/system_MKL25Z4.c **** **     o Neither the name of Freescale Semiconductor, Inc. nor the names of its
  37:../Project_Settings/Startup_Code/system_MKL25Z4.c **** **       contributors may be used to endorse or promote products derived from this
  38:../Project_Settings/Startup_Code/system_MKL25Z4.c **** **       software without specific prior written permission.
  39:../Project_Settings/Startup_Code/system_MKL25Z4.c **** **
  40:../Project_Settings/Startup_Code/system_MKL25Z4.c **** **     THIS SOFTWARE IS PROVIDED BY THE COPYRIGHT HOLDERS AND CONTRIBUTORS "AS IS" AND
  41:../Project_Settings/Startup_Code/system_MKL25Z4.c **** **     ANY EXPRESS OR IMPLIED WARRANTIES, INCLUDING, BUT NOT LIMITED TO, THE IMPLIED
  42:../Project_Settings/Startup_Code/system_MKL25Z4.c **** **     WARRANTIES OF MERCHANTABILITY AND FITNESS FOR A PARTICULAR PURPOSE ARE
  43:../Project_Settings/Startup_Code/system_MKL25Z4.c **** **     DISCLAIMED. IN NO EVENT SHALL THE COPYRIGHT HOLDER OR CONTRIBUTORS BE LIABLE FOR
  44:../Project_Settings/Startup_Code/system_MKL25Z4.c **** **     ANY DIRECT, INDIRECT, INCIDENTAL, SPECIAL, EXEMPLARY, OR CONSEQUENTIAL DAMAGES
  45:../Project_Settings/Startup_Code/system_MKL25Z4.c **** **     (INCLUDING, BUT NOT LIMITED TO, PROCUREMENT OF SUBSTITUTE GOODS OR SERVICES;
  46:../Project_Settings/Startup_Code/system_MKL25Z4.c **** **     LOSS OF USE, DATA, OR PROFITS; OR BUSINESS INTERRUPTION) HOWEVER CAUSED AND ON
  47:../Project_Settings/Startup_Code/system_MKL25Z4.c **** **     ANY THEORY OF LIABILITY, WHETHER IN CONTRACT, STRICT LIABILITY, OR TORT
  48:../Project_Settings/Startup_Code/system_MKL25Z4.c **** **     (INCLUDING NEGLIGENCE OR OTHERWISE) ARISING IN ANY WAY OUT OF THE USE OF THIS
  49:../Project_Settings/Startup_Code/system_MKL25Z4.c **** **     SOFTWARE, EVEN IF ADVISED OF THE POSSIBILITY OF SUCH DAMAGE.
  50:../Project_Settings/Startup_Code/system_MKL25Z4.c **** **
  51:../Project_Settings/Startup_Code/system_MKL25Z4.c **** **     http:                 www.freescale.com
  52:../Project_Settings/Startup_Code/system_MKL25Z4.c **** **     mail:                 support@freescale.com
  53:../Project_Settings/Startup_Code/system_MKL25Z4.c **** **
  54:../Project_Settings/Startup_Code/system_MKL25Z4.c **** **     Revisions:
  55:../Project_Settings/Startup_Code/system_MKL25Z4.c **** **     - rev. 1.0 (2012-06-13)
  56:../Project_Settings/Startup_Code/system_MKL25Z4.c **** **         Initial version.
  57:../Project_Settings/Startup_Code/system_MKL25Z4.c **** **     - rev. 1.1 (2012-06-21)
  58:../Project_Settings/Startup_Code/system_MKL25Z4.c **** **         Update according to reference manual rev. 1.
  59:../Project_Settings/Startup_Code/system_MKL25Z4.c **** **     - rev. 1.2 (2012-08-01)
  60:../Project_Settings/Startup_Code/system_MKL25Z4.c **** **         Device type UARTLP changed to UART0.
  61:../Project_Settings/Startup_Code/system_MKL25Z4.c **** **     - rev. 1.3 (2012-10-04)
  62:../Project_Settings/Startup_Code/system_MKL25Z4.c **** **         Update according to reference manual rev. 3.
  63:../Project_Settings/Startup_Code/system_MKL25Z4.c **** **     - rev. 1.4 (2012-11-22)
  64:../Project_Settings/Startup_Code/system_MKL25Z4.c **** **         MCG module - bit LOLS in MCG_S register renamed to LOLS0.
  65:../Project_Settings/Startup_Code/system_MKL25Z4.c **** **         NV registers - bit EZPORT_DIS in NV_FOPT register removed.
  66:../Project_Settings/Startup_Code/system_MKL25Z4.c **** **     - rev. 1.5 (2013-04-05)
  67:../Project_Settings/Startup_Code/system_MKL25Z4.c **** **         Changed start of doxygen comment.
  68:../Project_Settings/Startup_Code/system_MKL25Z4.c **** **     - rev. 2.0 (2013-10-29)
  69:../Project_Settings/Startup_Code/system_MKL25Z4.c **** **         Register accessor macros added to the memory map.
  70:../Project_Settings/Startup_Code/system_MKL25Z4.c **** **         Symbols for Processor Expert memory map compatibility added to the memory map.
  71:../Project_Settings/Startup_Code/system_MKL25Z4.c **** **         Startup file for gcc has been updated according to CMSIS 3.2.
  72:../Project_Settings/Startup_Code/system_MKL25Z4.c **** **         System initialization updated.
  73:../Project_Settings/Startup_Code/system_MKL25Z4.c **** **     - rev. 2.1 (2014-07-16)
  74:../Project_Settings/Startup_Code/system_MKL25Z4.c **** **         Module access macro module_BASES replaced by module_BASE_PTRS.
  75:../Project_Settings/Startup_Code/system_MKL25Z4.c **** **         System initialization and startup updated.
  76:../Project_Settings/Startup_Code/system_MKL25Z4.c **** **     - rev. 2.2 (2014-08-22)
  77:../Project_Settings/Startup_Code/system_MKL25Z4.c **** **         System initialization updated - default clock config changed.
  78:../Project_Settings/Startup_Code/system_MKL25Z4.c **** **     - rev. 2.3 (2014-08-28)
  79:../Project_Settings/Startup_Code/system_MKL25Z4.c **** **         Update of startup files - possibility to override DefaultISR added.
  80:../Project_Settings/Startup_Code/system_MKL25Z4.c **** **     - rev. 2.4 (2014-10-14)
  81:../Project_Settings/Startup_Code/system_MKL25Z4.c **** **         Interrupt INT_LPTimer renamed to INT_LPTMR0.
  82:../Project_Settings/Startup_Code/system_MKL25Z4.c **** **     - rev. 2.5 (2015-02-19)
  83:../Project_Settings/Startup_Code/system_MKL25Z4.c **** **         Renamed interrupt vector LLW to LLWU.
  84:../Project_Settings/Startup_Code/system_MKL25Z4.c **** **
  85:../Project_Settings/Startup_Code/system_MKL25Z4.c **** ** ###################################################################
  86:../Project_Settings/Startup_Code/system_MKL25Z4.c **** */
  87:../Project_Settings/Startup_Code/system_MKL25Z4.c **** 
  88:../Project_Settings/Startup_Code/system_MKL25Z4.c **** /*!
  89:../Project_Settings/Startup_Code/system_MKL25Z4.c ****  * @file MKL25Z4
  90:../Project_Settings/Startup_Code/system_MKL25Z4.c ****  * @version 2.5
  91:../Project_Settings/Startup_Code/system_MKL25Z4.c ****  * @date 2015-02-19
  92:../Project_Settings/Startup_Code/system_MKL25Z4.c ****  * @brief Device specific configuration file for MKL25Z4 (implementation file)
  93:../Project_Settings/Startup_Code/system_MKL25Z4.c ****  *
  94:../Project_Settings/Startup_Code/system_MKL25Z4.c ****  * Provides a system configuration function and a global variable that contains
  95:../Project_Settings/Startup_Code/system_MKL25Z4.c ****  * the system frequency. It configures the device and initializes the oscillator
  96:../Project_Settings/Startup_Code/system_MKL25Z4.c ****  * (PLL) that is part of the microcontroller device.
  97:../Project_Settings/Startup_Code/system_MKL25Z4.c ****  */
  98:../Project_Settings/Startup_Code/system_MKL25Z4.c **** 
  99:../Project_Settings/Startup_Code/system_MKL25Z4.c **** #include <stdint.h>
 100:../Project_Settings/Startup_Code/system_MKL25Z4.c **** #include "fsl_device_registers.h"
 101:../Project_Settings/Startup_Code/system_MKL25Z4.c **** 
 102:../Project_Settings/Startup_Code/system_MKL25Z4.c **** 
 103:../Project_Settings/Startup_Code/system_MKL25Z4.c **** 
 104:../Project_Settings/Startup_Code/system_MKL25Z4.c **** /* ----------------------------------------------------------------------------
 105:../Project_Settings/Startup_Code/system_MKL25Z4.c ****    -- Core clock
 106:../Project_Settings/Startup_Code/system_MKL25Z4.c ****    ---------------------------------------------------------------------------- */
 107:../Project_Settings/Startup_Code/system_MKL25Z4.c **** 
 108:../Project_Settings/Startup_Code/system_MKL25Z4.c **** uint32_t SystemCoreClock = DEFAULT_SYSTEM_CLOCK;
 109:../Project_Settings/Startup_Code/system_MKL25Z4.c **** 
 110:../Project_Settings/Startup_Code/system_MKL25Z4.c **** /* ----------------------------------------------------------------------------
 111:../Project_Settings/Startup_Code/system_MKL25Z4.c ****    -- SystemInit()
 112:../Project_Settings/Startup_Code/system_MKL25Z4.c ****    ---------------------------------------------------------------------------- */
 113:../Project_Settings/Startup_Code/system_MKL25Z4.c **** 
 114:../Project_Settings/Startup_Code/system_MKL25Z4.c **** void SystemInit (void) {
  33              		.loc 1 114 0
  34              		.cfi_startproc
  35 0000 80B5     		push	{r7, lr}
  36              		.cfi_def_cfa_offset 8
  37              		.cfi_offset 7, -8
  38              		.cfi_offset 14, -4
  39 0002 00AF     		add	r7, sp, #0
  40              		.cfi_def_cfa_register 7
 115:../Project_Settings/Startup_Code/system_MKL25Z4.c **** #if (DISABLE_WDOG)
 116:../Project_Settings/Startup_Code/system_MKL25Z4.c ****   /* SIM_COPC: COPT=0,COPCLKS=0,COPW=0 */
 117:../Project_Settings/Startup_Code/system_MKL25Z4.c ****   SIM->COPC = (uint32_t)0x00u;
  41              		.loc 1 117 0
  42 0004 034A     		ldr	r2, .L2
  43 0006 8823     		mov	r3, #136
  44 0008 5B01     		lsl	r3, r3, #5
  45 000a 0021     		mov	r1, #0
  46 000c D150     		str	r1, [r2, r3]
 118:../Project_Settings/Startup_Code/system_MKL25Z4.c **** #endif /* (DISABLE_WDOG) */
 119:../Project_Settings/Startup_Code/system_MKL25Z4.c **** #ifdef CLOCK_SETUP
 120:../Project_Settings/Startup_Code/system_MKL25Z4.c ****   if((RCM->SRS0 & RCM_SRS0_WAKEUP_MASK) != 0x00U)
 121:../Project_Settings/Startup_Code/system_MKL25Z4.c ****   {
 122:../Project_Settings/Startup_Code/system_MKL25Z4.c ****     if((PMC->REGSC & PMC_REGSC_ACKISO_MASK) != 0x00U)
 123:../Project_Settings/Startup_Code/system_MKL25Z4.c ****     {
 124:../Project_Settings/Startup_Code/system_MKL25Z4.c ****        PMC->REGSC |= PMC_REGSC_ACKISO_MASK; /* Release hold with ACKISO:  Only has an effect if rec
 125:../Project_Settings/Startup_Code/system_MKL25Z4.c ****     }
 126:../Project_Settings/Startup_Code/system_MKL25Z4.c ****   }
 127:../Project_Settings/Startup_Code/system_MKL25Z4.c **** 
 128:../Project_Settings/Startup_Code/system_MKL25Z4.c ****   /* Power mode protection initialization */
 129:../Project_Settings/Startup_Code/system_MKL25Z4.c **** #ifdef SYSTEM_SMC_PMPROT_VALUE
 130:../Project_Settings/Startup_Code/system_MKL25Z4.c ****   SMC->PMPROT = SYSTEM_SMC_PMPROT_VALUE;
 131:../Project_Settings/Startup_Code/system_MKL25Z4.c **** #endif
 132:../Project_Settings/Startup_Code/system_MKL25Z4.c **** 
 133:../Project_Settings/Startup_Code/system_MKL25Z4.c ****   /* System clock initialization */
 134:../Project_Settings/Startup_Code/system_MKL25Z4.c ****   /* Internal reference clock trim initialization */
 135:../Project_Settings/Startup_Code/system_MKL25Z4.c **** #if defined(SLOW_TRIM_ADDRESS)
 136:../Project_Settings/Startup_Code/system_MKL25Z4.c ****   if ( *((uint8_t*)SLOW_TRIM_ADDRESS) != 0xFFU) {                              /* Skip if non-volat
 137:../Project_Settings/Startup_Code/system_MKL25Z4.c ****     MCG->C3 = *((uint8_t*)SLOW_TRIM_ADDRESS);
 138:../Project_Settings/Startup_Code/system_MKL25Z4.c ****   #endif /* defined(SLOW_TRIM_ADDRESS) */
 139:../Project_Settings/Startup_Code/system_MKL25Z4.c ****   #if defined(SLOW_FINE_TRIM_ADDRESS)
 140:../Project_Settings/Startup_Code/system_MKL25Z4.c ****     MCG->C4 = (MCG->C4 & ~(MCG_C4_SCFTRIM_MASK)) | ((*((uint8_t*) SLOW_FINE_TRIM_ADDRESS)) & MCG_C4
 141:../Project_Settings/Startup_Code/system_MKL25Z4.c ****   #endif
 142:../Project_Settings/Startup_Code/system_MKL25Z4.c ****   #if defined(FAST_TRIM_ADDRESS)
 143:../Project_Settings/Startup_Code/system_MKL25Z4.c ****     MCG->C4 = (MCG->C4 & ~(MCG_C4_FCTRIM_MASK)) |((*((uint8_t*) FAST_TRIM_ADDRESS)) & MCG_C4_FCTRIM
 144:../Project_Settings/Startup_Code/system_MKL25Z4.c ****   #endif
 145:../Project_Settings/Startup_Code/system_MKL25Z4.c **** #if defined(SLOW_TRIM_ADDRESS)
 146:../Project_Settings/Startup_Code/system_MKL25Z4.c ****   }
 147:../Project_Settings/Startup_Code/system_MKL25Z4.c ****   #endif /* defined(SLOW_TRIM_ADDRESS) */
 148:../Project_Settings/Startup_Code/system_MKL25Z4.c **** 
 149:../Project_Settings/Startup_Code/system_MKL25Z4.c ****   /* Set system prescalers and clock sources */
 150:../Project_Settings/Startup_Code/system_MKL25Z4.c ****   SIM->CLKDIV1 = SYSTEM_SIM_CLKDIV1_VALUE; /* Set system prescalers */
 151:../Project_Settings/Startup_Code/system_MKL25Z4.c ****   SIM->SOPT1 = ((SIM->SOPT1) & (uint32_t)(~(SIM_SOPT1_OSC32KSEL_MASK))) | ((SYSTEM_SIM_SOPT1_VALUE)
 152:../Project_Settings/Startup_Code/system_MKL25Z4.c ****   SIM->SOPT2 = ((SIM->SOPT2) & (uint32_t)(~(SIM_SOPT2_PLLFLLSEL_MASK))) | ((SYSTEM_SIM_SOPT2_VALUE)
 153:../Project_Settings/Startup_Code/system_MKL25Z4.c ****   SIM->SOPT2 = ((SIM->SOPT2) & (uint32_t)(~(SIM_SOPT2_TPMSRC_MASK))) | ((SYSTEM_SIM_SOPT2_VALUE) & 
 154:../Project_Settings/Startup_Code/system_MKL25Z4.c **** #if ((MCG_MODE == MCG_MODE_FEI) || (MCG_MODE == MCG_MODE_FBI) || (MCG_MODE == MCG_MODE_BLPI))
 155:../Project_Settings/Startup_Code/system_MKL25Z4.c ****   /* Set MCG and OSC */
 156:../Project_Settings/Startup_Code/system_MKL25Z4.c **** #if  ((((SYSTEM_OSC0_CR_VALUE) & OSC_CR_ERCLKEN_MASK) != 0x00U) || (((SYSTEM_MCG_C5_VALUE) & MCG_C5
 157:../Project_Settings/Startup_Code/system_MKL25Z4.c ****   /* SIM_SCGC5: PORTA=1 */
 158:../Project_Settings/Startup_Code/system_MKL25Z4.c ****   SIM_SCGC5 |= SIM_SCGC5_PORTA_MASK;
 159:../Project_Settings/Startup_Code/system_MKL25Z4.c ****   /* PORTA_PCR18: ISF=0,MUX=0 */
 160:../Project_Settings/Startup_Code/system_MKL25Z4.c ****   PORTA_PCR18 &= (uint32_t)~(uint32_t)((PORT_PCR_ISF_MASK | PORT_PCR_MUX(0x07)));
 161:../Project_Settings/Startup_Code/system_MKL25Z4.c ****   if (((SYSTEM_MCG_C2_VALUE) & MCG_C2_EREFS0_MASK) != 0x00U) {
 162:../Project_Settings/Startup_Code/system_MKL25Z4.c ****   /* PORTA_PCR19: ISF=0,MUX=0 */
 163:../Project_Settings/Startup_Code/system_MKL25Z4.c ****   PORTA_PCR19 &= (uint32_t)~(uint32_t)((PORT_PCR_ISF_MASK | PORT_PCR_MUX(0x07)));
 164:../Project_Settings/Startup_Code/system_MKL25Z4.c ****   }
 165:../Project_Settings/Startup_Code/system_MKL25Z4.c **** #endif
 166:../Project_Settings/Startup_Code/system_MKL25Z4.c ****   MCG->SC = SYSTEM_MCG_SC_VALUE;       /* Set SC (fast clock internal reference divider) */
 167:../Project_Settings/Startup_Code/system_MKL25Z4.c ****   MCG->C1 = SYSTEM_MCG_C1_VALUE;       /* Set C1 (clock source selection, FLL ext. reference divide
 168:../Project_Settings/Startup_Code/system_MKL25Z4.c ****   /* Check that the source of the FLL reference clock is the requested one. */
 169:../Project_Settings/Startup_Code/system_MKL25Z4.c ****   if (((SYSTEM_MCG_C1_VALUE) & MCG_C1_IREFS_MASK) != 0x00U) {
 170:../Project_Settings/Startup_Code/system_MKL25Z4.c ****     while((MCG->S & MCG_S_IREFST_MASK) == 0x00U) {
 171:../Project_Settings/Startup_Code/system_MKL25Z4.c ****     }
 172:../Project_Settings/Startup_Code/system_MKL25Z4.c ****   } else {
 173:../Project_Settings/Startup_Code/system_MKL25Z4.c ****     while((MCG->S & MCG_S_IREFST_MASK) != 0x00U) {
 174:../Project_Settings/Startup_Code/system_MKL25Z4.c ****     }
 175:../Project_Settings/Startup_Code/system_MKL25Z4.c ****   }
 176:../Project_Settings/Startup_Code/system_MKL25Z4.c ****   MCG->C2 = (SYSTEM_MCG_C2_VALUE) & (uint8_t)(~(MCG_C2_LP_MASK)); /* Set C2 (freq. range, ext. and 
 177:../Project_Settings/Startup_Code/system_MKL25Z4.c ****   MCG->C4 = ((SYSTEM_MCG_C4_VALUE) & (uint8_t)(~(MCG_C4_FCTRIM_MASK | MCG_C4_SCFTRIM_MASK))) | (MCG
 178:../Project_Settings/Startup_Code/system_MKL25Z4.c ****   OSC0->CR = SYSTEM_OSC0_CR_VALUE;     /* Set OSC_CR (OSCERCLK enable, oscillator capacitor load) *
 179:../Project_Settings/Startup_Code/system_MKL25Z4.c ****   #if (MCG_MODE == MCG_MODE_BLPI)
 180:../Project_Settings/Startup_Code/system_MKL25Z4.c ****   /* BLPI specific */
 181:../Project_Settings/Startup_Code/system_MKL25Z4.c ****   MCG->C2 |= (MCG_C2_LP_MASK);         /* Disable FLL and PLL in bypass mode */
 182:../Project_Settings/Startup_Code/system_MKL25Z4.c ****   #endif
 183:../Project_Settings/Startup_Code/system_MKL25Z4.c **** 
 184:../Project_Settings/Startup_Code/system_MKL25Z4.c **** #else /* MCG_MODE */
 185:../Project_Settings/Startup_Code/system_MKL25Z4.c ****   /* Set MCG and OSC */
 186:../Project_Settings/Startup_Code/system_MKL25Z4.c ****   /* SIM_SCGC5: PORTA=1 */
 187:../Project_Settings/Startup_Code/system_MKL25Z4.c ****   SIM_SCGC5 |= SIM_SCGC5_PORTA_MASK;
 188:../Project_Settings/Startup_Code/system_MKL25Z4.c ****   /* PORTA_PCR18: ISF=0,MUX=0 */
 189:../Project_Settings/Startup_Code/system_MKL25Z4.c ****   PORTA_PCR18 &= (uint32_t)~(uint32_t)((PORT_PCR_ISF_MASK | PORT_PCR_MUX(0x07)));
 190:../Project_Settings/Startup_Code/system_MKL25Z4.c ****   if (((SYSTEM_MCG_C2_VALUE) & MCG_C2_EREFS0_MASK) != 0x00U) {
 191:../Project_Settings/Startup_Code/system_MKL25Z4.c ****   /* PORTA_PCR19: ISF=0,MUX=0 */
 192:../Project_Settings/Startup_Code/system_MKL25Z4.c ****   PORTA_PCR19 &= (uint32_t)~(uint32_t)((PORT_PCR_ISF_MASK | PORT_PCR_MUX(0x07)));
 193:../Project_Settings/Startup_Code/system_MKL25Z4.c ****   }
 194:../Project_Settings/Startup_Code/system_MKL25Z4.c ****   MCG->SC = SYSTEM_MCG_SC_VALUE;       /* Set SC (fast clock internal reference divider) */
 195:../Project_Settings/Startup_Code/system_MKL25Z4.c ****   MCG->C2 = (SYSTEM_MCG_C2_VALUE) & (uint8_t)(~(MCG_C2_LP_MASK)); /* Set C2 (freq. range, ext. and 
 196:../Project_Settings/Startup_Code/system_MKL25Z4.c ****   OSC0->CR = SYSTEM_OSC0_CR_VALUE;     /* Set OSC_CR (OSCERCLK enable, oscillator capacitor load) *
 197:../Project_Settings/Startup_Code/system_MKL25Z4.c ****   #if (MCG_MODE == MCG_MODE_PEE)
 198:../Project_Settings/Startup_Code/system_MKL25Z4.c ****   MCG->C1 = (SYSTEM_MCG_C1_VALUE) | MCG_C1_CLKS(0x02); /* Set C1 (clock source selection, FLL ext. 
 199:../Project_Settings/Startup_Code/system_MKL25Z4.c ****   #else
 200:../Project_Settings/Startup_Code/system_MKL25Z4.c ****   MCG->C1 = SYSTEM_MCG_C1_VALUE;       /* Set C1 (clock source selection, FLL ext. reference divide
 201:../Project_Settings/Startup_Code/system_MKL25Z4.c ****   #endif
 202:../Project_Settings/Startup_Code/system_MKL25Z4.c ****   if (((SYSTEM_MCG_C2_VALUE) & MCG_C2_EREFS0_MASK) != 0x00U) {
 203:../Project_Settings/Startup_Code/system_MKL25Z4.c ****     while((MCG->S & MCG_S_OSCINIT0_MASK) == 0x00U) { /* Check that the oscillator is running */
 204:../Project_Settings/Startup_Code/system_MKL25Z4.c ****     }
 205:../Project_Settings/Startup_Code/system_MKL25Z4.c ****   }
 206:../Project_Settings/Startup_Code/system_MKL25Z4.c ****   /* Check that the source of the FLL reference clock is the requested one. */
 207:../Project_Settings/Startup_Code/system_MKL25Z4.c ****   if (((SYSTEM_MCG_C1_VALUE) & MCG_C1_IREFS_MASK) != 0x00U) {
 208:../Project_Settings/Startup_Code/system_MKL25Z4.c ****     while((MCG->S & MCG_S_IREFST_MASK) == 0x00U) {
 209:../Project_Settings/Startup_Code/system_MKL25Z4.c ****     }
 210:../Project_Settings/Startup_Code/system_MKL25Z4.c ****   } else {
 211:../Project_Settings/Startup_Code/system_MKL25Z4.c ****     while((MCG->S & MCG_S_IREFST_MASK) != 0x00U) {
 212:../Project_Settings/Startup_Code/system_MKL25Z4.c ****     }
 213:../Project_Settings/Startup_Code/system_MKL25Z4.c ****   }
 214:../Project_Settings/Startup_Code/system_MKL25Z4.c ****   MCG->C4 = ((SYSTEM_MCG_C4_VALUE)  & (uint8_t)(~(MCG_C4_FCTRIM_MASK | MCG_C4_SCFTRIM_MASK))) | (MC
 215:../Project_Settings/Startup_Code/system_MKL25Z4.c **** #endif /* MCG_MODE */
 216:../Project_Settings/Startup_Code/system_MKL25Z4.c **** 
 217:../Project_Settings/Startup_Code/system_MKL25Z4.c ****   /* Common for all MCG modes */
 218:../Project_Settings/Startup_Code/system_MKL25Z4.c **** 
 219:../Project_Settings/Startup_Code/system_MKL25Z4.c ****   /* PLL clock can be used to generate clock for some devices regardless of clock generator (MCGOUT
 220:../Project_Settings/Startup_Code/system_MKL25Z4.c ****   MCG->C5 = (SYSTEM_MCG_C5_VALUE) & (uint8_t)(~(MCG_C5_PLLCLKEN0_MASK)); /* Set C5 (PLL settings, P
 221:../Project_Settings/Startup_Code/system_MKL25Z4.c ****   MCG->C6 = (SYSTEM_MCG_C6_VALUE) & (uint8_t)~(MCG_C6_PLLS_MASK); /* Set C6 (PLL select, VCO divide
 222:../Project_Settings/Startup_Code/system_MKL25Z4.c ****   if ((SYSTEM_MCG_C5_VALUE) & MCG_C5_PLLCLKEN0_MASK) {
 223:../Project_Settings/Startup_Code/system_MKL25Z4.c ****     MCG->C5 |= MCG_C5_PLLCLKEN0_MASK;  /* PLL clock enable in mode other than PEE or PBE */
 224:../Project_Settings/Startup_Code/system_MKL25Z4.c ****   }
 225:../Project_Settings/Startup_Code/system_MKL25Z4.c ****   /* BLPE, PEE and PBE MCG mode specific */
 226:../Project_Settings/Startup_Code/system_MKL25Z4.c **** 
 227:../Project_Settings/Startup_Code/system_MKL25Z4.c **** #if (MCG_MODE == MCG_MODE_BLPE)
 228:../Project_Settings/Startup_Code/system_MKL25Z4.c ****   MCG->C2 |= (MCG_C2_LP_MASK);         /* Disable FLL and PLL in bypass mode */
 229:../Project_Settings/Startup_Code/system_MKL25Z4.c **** #elif ((MCG_MODE == MCG_MODE_PBE) || (MCG_MODE == MCG_MODE_PEE))
 230:../Project_Settings/Startup_Code/system_MKL25Z4.c ****   MCG->C6 |= (MCG_C6_PLLS_MASK);       /* Set C6 (PLL select, VCO divider etc.) */
 231:../Project_Settings/Startup_Code/system_MKL25Z4.c ****   while((MCG->S & MCG_S_LOCK0_MASK) == 0x00U) { /* Wait until PLL is locked*/
 232:../Project_Settings/Startup_Code/system_MKL25Z4.c ****   }
 233:../Project_Settings/Startup_Code/system_MKL25Z4.c ****   #if (MCG_MODE == MCG_MODE_PEE)
 234:../Project_Settings/Startup_Code/system_MKL25Z4.c ****   MCG->C1 &= (uint8_t)~(MCG_C1_CLKS_MASK);
 235:../Project_Settings/Startup_Code/system_MKL25Z4.c ****   #endif
 236:../Project_Settings/Startup_Code/system_MKL25Z4.c **** #endif
 237:../Project_Settings/Startup_Code/system_MKL25Z4.c **** #if ((MCG_MODE == MCG_MODE_FEI) || (MCG_MODE == MCG_MODE_FEE))
 238:../Project_Settings/Startup_Code/system_MKL25Z4.c ****   while((MCG->S & MCG_S_CLKST_MASK) != 0x00U) { /* Wait until output of the FLL is selected */
 239:../Project_Settings/Startup_Code/system_MKL25Z4.c ****   }
 240:../Project_Settings/Startup_Code/system_MKL25Z4.c ****   /* Use LPTMR to wait for 1ms for FLL clock stabilization */
 241:../Project_Settings/Startup_Code/system_MKL25Z4.c ****   SIM_SCGC5 |= SIM_SCGC5_LPTMR_MASK;   /* Alow software control of LPMTR */
 242:../Project_Settings/Startup_Code/system_MKL25Z4.c ****   LPTMR0->CMR = LPTMR_CMR_COMPARE(0);  /* Default 1 LPO tick */
 243:../Project_Settings/Startup_Code/system_MKL25Z4.c ****   LPTMR0->CSR = (LPTMR_CSR_TCF_MASK | LPTMR_CSR_TPS(0x00));
 244:../Project_Settings/Startup_Code/system_MKL25Z4.c ****   LPTMR0->PSR = (LPTMR_PSR_PCS(0x01) | LPTMR_PSR_PBYP_MASK); /* Clock source: LPO, Prescaler bypass
 245:../Project_Settings/Startup_Code/system_MKL25Z4.c ****   LPTMR0->CSR = LPTMR_CSR_TEN_MASK;    /* LPMTR enable */
 246:../Project_Settings/Startup_Code/system_MKL25Z4.c ****   while((LPTMR0_CSR & LPTMR_CSR_TCF_MASK) == 0u) {
 247:../Project_Settings/Startup_Code/system_MKL25Z4.c ****   }
 248:../Project_Settings/Startup_Code/system_MKL25Z4.c ****   LPTMR0_CSR = 0x00;                   /* Disable LPTMR */
 249:../Project_Settings/Startup_Code/system_MKL25Z4.c ****   SIM_SCGC5 &= (uint32_t)~(uint32_t)SIM_SCGC5_LPTMR_MASK;
 250:../Project_Settings/Startup_Code/system_MKL25Z4.c **** #elif ((MCG_MODE == MCG_MODE_FBI) || (MCG_MODE == MCG_MODE_BLPI))
 251:../Project_Settings/Startup_Code/system_MKL25Z4.c ****   while((MCG->S & MCG_S_CLKST_MASK) != 0x04U) { /* Wait until internal reference clock is selected 
 252:../Project_Settings/Startup_Code/system_MKL25Z4.c ****   }
 253:../Project_Settings/Startup_Code/system_MKL25Z4.c **** #elif ((MCG_MODE == MCG_MODE_FBE) || (MCG_MODE == MCG_MODE_PBE) || (MCG_MODE == MCG_MODE_BLPE))
 254:../Project_Settings/Startup_Code/system_MKL25Z4.c ****   while((MCG->S & MCG_S_CLKST_MASK) != 0x08U) { /* Wait until external reference clock is selected 
 255:../Project_Settings/Startup_Code/system_MKL25Z4.c ****   }
 256:../Project_Settings/Startup_Code/system_MKL25Z4.c **** #elif (MCG_MODE == MCG_MODE_PEE)
 257:../Project_Settings/Startup_Code/system_MKL25Z4.c ****   while((MCG->S & MCG_S_CLKST_MASK) != 0x0CU) { /* Wait until output of the PLL is selected */
 258:../Project_Settings/Startup_Code/system_MKL25Z4.c ****   }
 259:../Project_Settings/Startup_Code/system_MKL25Z4.c **** #endif
 260:../Project_Settings/Startup_Code/system_MKL25Z4.c **** #if (((SYSTEM_SMC_PMCTRL_VALUE) & SMC_PMCTRL_RUNM_MASK) == (0x02U << SMC_PMCTRL_RUNM_SHIFT))
 261:../Project_Settings/Startup_Code/system_MKL25Z4.c ****   SMC->PMCTRL = (uint8_t)((SYSTEM_SMC_PMCTRL_VALUE) & (SMC_PMCTRL_RUNM_MASK)); /* Enable VLPR mode 
 262:../Project_Settings/Startup_Code/system_MKL25Z4.c ****   while(SMC->PMSTAT != 0x04U) {        /* Wait until the system is in VLPR mode */
 263:../Project_Settings/Startup_Code/system_MKL25Z4.c ****   }
 264:../Project_Settings/Startup_Code/system_MKL25Z4.c **** #endif
 265:../Project_Settings/Startup_Code/system_MKL25Z4.c **** 
 266:../Project_Settings/Startup_Code/system_MKL25Z4.c ****   /* PLL loss of lock interrupt request initialization */
 267:../Project_Settings/Startup_Code/system_MKL25Z4.c ****   if (((SYSTEM_MCG_C6_VALUE) & MCG_C6_LOLIE0_MASK) != 0U) {
 268:../Project_Settings/Startup_Code/system_MKL25Z4.c ****     NVIC_EnableIRQ(MCG_IRQn);          /* Enable PLL loss of lock interrupt request */
 269:../Project_Settings/Startup_Code/system_MKL25Z4.c ****   }
 270:../Project_Settings/Startup_Code/system_MKL25Z4.c **** #endif
 271:../Project_Settings/Startup_Code/system_MKL25Z4.c **** }
  47              		.loc 1 271 0
  48 000e BD46     		mov	sp, r7
  49              		@ sp needed
  50 0010 80BD     		pop	{r7, pc}
  51              	.L3:
  52 0012 C046     		.align	2
  53              	.L2:
  54 0014 00700440 		.word	1074032640
  55              		.cfi_endproc
  56              	.LFE33:
  58              		.global	__aeabi_uidiv
  59              		.section	.text.SystemCoreClockUpdate,"ax",%progbits
  60              		.align	2
  61              		.global	SystemCoreClockUpdate
  62              		.code	16
  63              		.thumb_func
  65              	SystemCoreClockUpdate:
  66              	.LFB34:
 272:../Project_Settings/Startup_Code/system_MKL25Z4.c **** 
 273:../Project_Settings/Startup_Code/system_MKL25Z4.c **** /* ----------------------------------------------------------------------------
 274:../Project_Settings/Startup_Code/system_MKL25Z4.c ****    -- SystemCoreClockUpdate()
 275:../Project_Settings/Startup_Code/system_MKL25Z4.c ****    ---------------------------------------------------------------------------- */
 276:../Project_Settings/Startup_Code/system_MKL25Z4.c **** 
 277:../Project_Settings/Startup_Code/system_MKL25Z4.c **** void SystemCoreClockUpdate (void) {
  67              		.loc 1 277 0
  68              		.cfi_startproc
  69 0000 80B5     		push	{r7, lr}
  70              		.cfi_def_cfa_offset 8
  71              		.cfi_offset 7, -8
  72              		.cfi_offset 14, -4
  73 0002 82B0     		sub	sp, sp, #8
  74              		.cfi_def_cfa_offset 16
  75 0004 00AF     		add	r7, sp, #0
  76              		.cfi_def_cfa_register 7
 278:../Project_Settings/Startup_Code/system_MKL25Z4.c ****   uint32_t MCGOUTClock;                /* Variable to store output clock frequency of the MCG modul
 279:../Project_Settings/Startup_Code/system_MKL25Z4.c ****   uint16_t Divider;
 280:../Project_Settings/Startup_Code/system_MKL25Z4.c **** 
 281:../Project_Settings/Startup_Code/system_MKL25Z4.c ****   if ((MCG->C1 & MCG_C1_CLKS_MASK) == 0x00U) {
  77              		.loc 1 281 0
  78 0006 854B     		ldr	r3, .L35
  79 0008 1B78     		ldrb	r3, [r3]
  80 000a DBB2     		uxtb	r3, r3
  81 000c 1A1C     		mov	r2, r3
  82 000e C023     		mov	r3, #192
  83 0010 1340     		and	r3, r2
  84 0012 00D0     		beq	.LCB48
  85 0014 BFE0     		b	.L5	@long jump
  86              	.LCB48:
 282:../Project_Settings/Startup_Code/system_MKL25Z4.c ****     /* Output of FLL or PLL is selected */
 283:../Project_Settings/Startup_Code/system_MKL25Z4.c ****     if ((MCG->C6 & MCG_C6_PLLS_MASK) == 0x00U) {
  87              		.loc 1 283 0
  88 0016 814B     		ldr	r3, .L35
  89 0018 5B79     		ldrb	r3, [r3, #5]
  90 001a DBB2     		uxtb	r3, r3
  91 001c 1A1C     		mov	r2, r3
  92 001e 4023     		mov	r3, #64
  93 0020 1340     		and	r3, r2
  94 0022 00D0     		beq	.LCB56
  95 0024 95E0     		b	.L6	@long jump
  96              	.LCB56:
 284:../Project_Settings/Startup_Code/system_MKL25Z4.c ****       /* FLL is selected */
 285:../Project_Settings/Startup_Code/system_MKL25Z4.c ****       if ((MCG->C1 & MCG_C1_IREFS_MASK) == 0x00U) {
  97              		.loc 1 285 0
  98 0026 7D4B     		ldr	r3, .L35
  99 0028 1B78     		ldrb	r3, [r3]
 100 002a DBB2     		uxtb	r3, r3
 101 002c 1A1C     		mov	r2, r3
 102 002e 0423     		mov	r3, #4
 103 0030 1340     		and	r3, r2
 104 0032 3DD1     		bne	.L7
 286:../Project_Settings/Startup_Code/system_MKL25Z4.c ****         /* External reference clock is selected */
 287:../Project_Settings/Startup_Code/system_MKL25Z4.c ****         MCGOUTClock = CPU_XTAL_CLK_HZ; /* System oscillator drives MCG clock */
 105              		.loc 1 287 0
 106 0034 7A4B     		ldr	r3, .L35+4
 107 0036 7B60     		str	r3, [r7, #4]
 288:../Project_Settings/Startup_Code/system_MKL25Z4.c ****         if ((MCG->C2 & MCG_C2_RANGE0_MASK) != 0x00U) {
 108              		.loc 1 288 0
 109 0038 784B     		ldr	r3, .L35
 110 003a 5B78     		ldrb	r3, [r3, #1]
 111 003c DBB2     		uxtb	r3, r3
 112 003e 1A1C     		mov	r2, r3
 113 0040 3023     		mov	r3, #48
 114 0042 1340     		and	r3, r2
 115 0044 20D0     		beq	.L8
 289:../Project_Settings/Startup_Code/system_MKL25Z4.c ****           switch (MCG->C1 & MCG_C1_FRDIV_MASK) {
 116              		.loc 1 289 0
 117 0046 754B     		ldr	r3, .L35
 118 0048 1B78     		ldrb	r3, [r3]
 119 004a DBB2     		uxtb	r3, r3
 120 004c 1A1C     		mov	r2, r3
 121 004e 3823     		mov	r3, #56
 122 0050 1340     		and	r3, r2
 123 0052 302B     		cmp	r3, #48
 124 0054 06D0     		beq	.L10
 125 0056 382B     		cmp	r3, #56
 126 0058 09D1     		bne	.L34
 290:../Project_Settings/Startup_Code/system_MKL25Z4.c ****           case 0x38U:
 291:../Project_Settings/Startup_Code/system_MKL25Z4.c ****             Divider = 1536U;
 127              		.loc 1 291 0
 128 005a BB1C     		add	r3, r7, #2
 129 005c C022     		mov	r2, #192
 130 005e D200     		lsl	r2, r2, #3
 131 0060 1A80     		strh	r2, [r3]
 292:../Project_Settings/Startup_Code/system_MKL25Z4.c ****             break;
 132              		.loc 1 292 0
 133 0062 10E0     		b	.L12
 134              	.L10:
 293:../Project_Settings/Startup_Code/system_MKL25Z4.c ****           case 0x30U:
 294:../Project_Settings/Startup_Code/system_MKL25Z4.c ****             Divider = 1280U;
 135              		.loc 1 294 0
 136 0064 BB1C     		add	r3, r7, #2
 137 0066 A022     		mov	r2, #160
 138 0068 D200     		lsl	r2, r2, #3
 139 006a 1A80     		strh	r2, [r3]
 295:../Project_Settings/Startup_Code/system_MKL25Z4.c ****             break;
 140              		.loc 1 295 0
 141 006c 0BE0     		b	.L12
 142              	.L34:
 296:../Project_Settings/Startup_Code/system_MKL25Z4.c ****           default:
 297:../Project_Settings/Startup_Code/system_MKL25Z4.c ****             Divider = (uint16_t)(32LU << ((MCG->C1 & MCG_C1_FRDIV_MASK) >> MCG_C1_FRDIV_SHIFT));
 143              		.loc 1 297 0
 144 006e 6B4B     		ldr	r3, .L35
 145 0070 1B78     		ldrb	r3, [r3]
 146 0072 DBB2     		uxtb	r3, r3
 147 0074 1A1C     		mov	r2, r3
 148 0076 3823     		mov	r3, #56
 149 0078 1340     		and	r3, r2
 150 007a DB08     		lsr	r3, r3, #3
 151 007c 2022     		mov	r2, #32
 152 007e 9A40     		lsl	r2, r2, r3
 153 0080 BB1C     		add	r3, r7, #2
 154 0082 1A80     		strh	r2, [r3]
 298:../Project_Settings/Startup_Code/system_MKL25Z4.c ****             break;
 155              		.loc 1 298 0
 156 0084 C046     		mov	r8, r8
 157              	.L12:
 158 0086 0AE0     		b	.L13
 159              	.L8:
 299:../Project_Settings/Startup_Code/system_MKL25Z4.c ****           }
 300:../Project_Settings/Startup_Code/system_MKL25Z4.c ****         } else {/* ((MCG->C2 & MCG_C2_RANGE_MASK) != 0x00U) */
 301:../Project_Settings/Startup_Code/system_MKL25Z4.c ****           Divider = (uint16_t)(1LU << ((MCG->C1 & MCG_C1_FRDIV_MASK) >> MCG_C1_FRDIV_SHIFT));
 160              		.loc 1 301 0
 161 0088 644B     		ldr	r3, .L35
 162 008a 1B78     		ldrb	r3, [r3]
 163 008c DBB2     		uxtb	r3, r3
 164 008e 1A1C     		mov	r2, r3
 165 0090 3823     		mov	r3, #56
 166 0092 1340     		and	r3, r2
 167 0094 DB08     		lsr	r3, r3, #3
 168 0096 0122     		mov	r2, #1
 169 0098 9A40     		lsl	r2, r2, r3
 170 009a BB1C     		add	r3, r7, #2
 171 009c 1A80     		strh	r2, [r3]
 172              	.L13:
 302:../Project_Settings/Startup_Code/system_MKL25Z4.c ****         }
 303:../Project_Settings/Startup_Code/system_MKL25Z4.c ****         MCGOUTClock = (MCGOUTClock / Divider); /* Calculate the divided FLL reference clock */
 173              		.loc 1 303 0 discriminator 1
 174 009e BB1C     		add	r3, r7, #2
 175 00a0 1B88     		ldrh	r3, [r3]
 176 00a2 7868     		ldr	r0, [r7, #4]
 177 00a4 191C     		mov	r1, r3
 178 00a6 FFF7FEFF 		bl	__aeabi_uidiv
 179 00aa 031C     		mov	r3, r0
 180 00ac 7B60     		str	r3, [r7, #4]
 181 00ae 02E0     		b	.L14
 182              	.L7:
 304:../Project_Settings/Startup_Code/system_MKL25Z4.c ****       } else { /* (!((MCG->C1 & MCG_C1_IREFS_MASK) == 0x00U)) */
 305:../Project_Settings/Startup_Code/system_MKL25Z4.c ****         MCGOUTClock = CPU_INT_SLOW_CLK_HZ; /* The slow internal reference clock is selected */
 183              		.loc 1 305 0
 184 00b0 8023     		mov	r3, #128
 185 00b2 1B02     		lsl	r3, r3, #8
 186 00b4 7B60     		str	r3, [r7, #4]
 187              	.L14:
 306:../Project_Settings/Startup_Code/system_MKL25Z4.c ****       } /* (!((MCG->C1 & MCG_C1_IREFS_MASK) == 0x00U)) */
 307:../Project_Settings/Startup_Code/system_MKL25Z4.c ****       /* Select correct multiplier to calculate the MCG output clock  */
 308:../Project_Settings/Startup_Code/system_MKL25Z4.c ****       switch (MCG->C4 & (MCG_C4_DMX32_MASK | MCG_C4_DRST_DRS_MASK)) {
 188              		.loc 1 308 0
 189 00b6 594B     		ldr	r3, .L35
 190 00b8 DB78     		ldrb	r3, [r3, #3]
 191 00ba DBB2     		uxtb	r3, r3
 192 00bc 1A1C     		mov	r2, r3
 193 00be E023     		mov	r3, #224
 194 00c0 1340     		and	r3, r2
 195 00c2 602B     		cmp	r3, #96
 196 00c4 27D0     		beq	.L16
 197 00c6 06D8     		bhi	.L17
 198 00c8 202B     		cmp	r3, #32
 199 00ca 16D0     		beq	.L18
 200 00cc 402B     		cmp	r3, #64
 201 00ce 1BD0     		beq	.L19
 202 00d0 002B     		cmp	r3, #0
 203 00d2 0BD0     		beq	.L20
 309:../Project_Settings/Startup_Code/system_MKL25Z4.c ****         case 0x00U:
 310:../Project_Settings/Startup_Code/system_MKL25Z4.c ****           MCGOUTClock *= 640U;
 311:../Project_Settings/Startup_Code/system_MKL25Z4.c ****           break;
 312:../Project_Settings/Startup_Code/system_MKL25Z4.c ****         case 0x20U:
 313:../Project_Settings/Startup_Code/system_MKL25Z4.c ****           MCGOUTClock *= 1280U;
 314:../Project_Settings/Startup_Code/system_MKL25Z4.c ****           break;
 315:../Project_Settings/Startup_Code/system_MKL25Z4.c ****         case 0x40U:
 316:../Project_Settings/Startup_Code/system_MKL25Z4.c ****           MCGOUTClock *= 1920U;
 317:../Project_Settings/Startup_Code/system_MKL25Z4.c ****           break;
 318:../Project_Settings/Startup_Code/system_MKL25Z4.c ****         case 0x60U:
 319:../Project_Settings/Startup_Code/system_MKL25Z4.c ****           MCGOUTClock *= 2560U;
 320:../Project_Settings/Startup_Code/system_MKL25Z4.c ****           break;
 321:../Project_Settings/Startup_Code/system_MKL25Z4.c ****         case 0x80U:
 322:../Project_Settings/Startup_Code/system_MKL25Z4.c ****           MCGOUTClock *= 732U;
 323:../Project_Settings/Startup_Code/system_MKL25Z4.c ****           break;
 324:../Project_Settings/Startup_Code/system_MKL25Z4.c ****         case 0xA0U:
 325:../Project_Settings/Startup_Code/system_MKL25Z4.c ****           MCGOUTClock *= 1464U;
 326:../Project_Settings/Startup_Code/system_MKL25Z4.c ****           break;
 327:../Project_Settings/Startup_Code/system_MKL25Z4.c ****         case 0xC0U:
 328:../Project_Settings/Startup_Code/system_MKL25Z4.c ****           MCGOUTClock *= 2197U;
 329:../Project_Settings/Startup_Code/system_MKL25Z4.c ****           break;
 330:../Project_Settings/Startup_Code/system_MKL25Z4.c ****         case 0xE0U:
 331:../Project_Settings/Startup_Code/system_MKL25Z4.c ****           MCGOUTClock *= 2929U;
 332:../Project_Settings/Startup_Code/system_MKL25Z4.c ****           break;
 333:../Project_Settings/Startup_Code/system_MKL25Z4.c ****         default:
 334:../Project_Settings/Startup_Code/system_MKL25Z4.c ****           break;
 204              		.loc 1 334 0
 205 00d4 3CE0     		b	.L26
 206              	.L17:
 308:../Project_Settings/Startup_Code/system_MKL25Z4.c ****       switch (MCG->C4 & (MCG_C4_DMX32_MASK | MCG_C4_DRST_DRS_MASK)) {
 207              		.loc 1 308 0
 208 00d6 A02B     		cmp	r3, #160
 209 00d8 2AD0     		beq	.L21
 210 00da 02D8     		bhi	.L22
 211 00dc 802B     		cmp	r3, #128
 212 00de 21D0     		beq	.L23
 213              		.loc 1 334 0
 214 00e0 36E0     		b	.L26
 215              	.L22:
 308:../Project_Settings/Startup_Code/system_MKL25Z4.c ****       switch (MCG->C4 & (MCG_C4_DMX32_MASK | MCG_C4_DRST_DRS_MASK)) {
 216              		.loc 1 308 0
 217 00e2 C02B     		cmp	r3, #192
 218 00e4 2AD0     		beq	.L24
 219 00e6 E02B     		cmp	r3, #224
 220 00e8 2DD0     		beq	.L25
 221              		.loc 1 334 0
 222 00ea 31E0     		b	.L26
 223              	.L20:
 310:../Project_Settings/Startup_Code/system_MKL25Z4.c ****           MCGOUTClock *= 640U;
 224              		.loc 1 310 0
 225 00ec 7A68     		ldr	r2, [r7, #4]
 226 00ee 131C     		mov	r3, r2
 227 00f0 9B00     		lsl	r3, r3, #2
 228 00f2 9B18     		add	r3, r3, r2
 229 00f4 DB01     		lsl	r3, r3, #7
 230 00f6 7B60     		str	r3, [r7, #4]
 311:../Project_Settings/Startup_Code/system_MKL25Z4.c ****           break;
 231              		.loc 1 311 0
 232 00f8 2AE0     		b	.L26
 233              	.L18:
 313:../Project_Settings/Startup_Code/system_MKL25Z4.c ****           MCGOUTClock *= 1280U;
 234              		.loc 1 313 0
 235 00fa 7A68     		ldr	r2, [r7, #4]
 236 00fc 131C     		mov	r3, r2
 237 00fe 9B00     		lsl	r3, r3, #2
 238 0100 9B18     		add	r3, r3, r2
 239 0102 1B02     		lsl	r3, r3, #8
 240 0104 7B60     		str	r3, [r7, #4]
 314:../Project_Settings/Startup_Code/system_MKL25Z4.c ****           break;
 241              		.loc 1 314 0
 242 0106 23E0     		b	.L26
 243              	.L19:
 316:../Project_Settings/Startup_Code/system_MKL25Z4.c ****           MCGOUTClock *= 1920U;
 244              		.loc 1 316 0
 245 0108 7A68     		ldr	r2, [r7, #4]
 246 010a 131C     		mov	r3, r2
 247 010c 1B01     		lsl	r3, r3, #4
 248 010e 9B1A     		sub	r3, r3, r2
 249 0110 DB01     		lsl	r3, r3, #7
 250 0112 7B60     		str	r3, [r7, #4]
 317:../Project_Settings/Startup_Code/system_MKL25Z4.c ****           break;
 251              		.loc 1 317 0
 252 0114 1CE0     		b	.L26
 253              	.L16:
 319:../Project_Settings/Startup_Code/system_MKL25Z4.c ****           MCGOUTClock *= 2560U;
 254              		.loc 1 319 0
 255 0116 7A68     		ldr	r2, [r7, #4]
 256 0118 131C     		mov	r3, r2
 257 011a 9B00     		lsl	r3, r3, #2
 258 011c 9B18     		add	r3, r3, r2
 259 011e 5B02     		lsl	r3, r3, #9
 260 0120 7B60     		str	r3, [r7, #4]
 320:../Project_Settings/Startup_Code/system_MKL25Z4.c ****           break;
 261              		.loc 1 320 0
 262 0122 15E0     		b	.L26
 263              	.L23:
 322:../Project_Settings/Startup_Code/system_MKL25Z4.c ****           MCGOUTClock *= 732U;
 264              		.loc 1 322 0
 265 0124 7B68     		ldr	r3, [r7, #4]
 266 0126 B722     		mov	r2, #183
 267 0128 9200     		lsl	r2, r2, #2
 268 012a 5343     		mul	r3, r2
 269 012c 7B60     		str	r3, [r7, #4]
 323:../Project_Settings/Startup_Code/system_MKL25Z4.c ****           break;
 270              		.loc 1 323 0
 271 012e 0FE0     		b	.L26
 272              	.L21:
 325:../Project_Settings/Startup_Code/system_MKL25Z4.c ****           MCGOUTClock *= 1464U;
 273              		.loc 1 325 0
 274 0130 7B68     		ldr	r3, [r7, #4]
 275 0132 B722     		mov	r2, #183
 276 0134 D200     		lsl	r2, r2, #3
 277 0136 5343     		mul	r3, r2
 278 0138 7B60     		str	r3, [r7, #4]
 326:../Project_Settings/Startup_Code/system_MKL25Z4.c ****           break;
 279              		.loc 1 326 0
 280 013a 09E0     		b	.L26
 281              	.L24:
 328:../Project_Settings/Startup_Code/system_MKL25Z4.c ****           MCGOUTClock *= 2197U;
 282              		.loc 1 328 0
 283 013c 7B68     		ldr	r3, [r7, #4]
 284 013e 394A     		ldr	r2, .L35+8
 285 0140 5343     		mul	r3, r2
 286 0142 7B60     		str	r3, [r7, #4]
 329:../Project_Settings/Startup_Code/system_MKL25Z4.c ****           break;
 287              		.loc 1 329 0
 288 0144 04E0     		b	.L26
 289              	.L25:
 331:../Project_Settings/Startup_Code/system_MKL25Z4.c ****           MCGOUTClock *= 2929U;
 290              		.loc 1 331 0
 291 0146 7B68     		ldr	r3, [r7, #4]
 292 0148 374A     		ldr	r2, .L35+12
 293 014a 5343     		mul	r3, r2
 294 014c 7B60     		str	r3, [r7, #4]
 332:../Project_Settings/Startup_Code/system_MKL25Z4.c ****           break;
 295              		.loc 1 332 0
 296 014e C046     		mov	r8, r8
 297              	.L26:
 298 0150 54E0     		b	.L28
 299              	.L6:
 335:../Project_Settings/Startup_Code/system_MKL25Z4.c ****       }
 336:../Project_Settings/Startup_Code/system_MKL25Z4.c ****     } else { /* (!((MCG->C6 & MCG_C6_PLLS_MASK) == 0x00U)) */
 337:../Project_Settings/Startup_Code/system_MKL25Z4.c ****       /* PLL is selected */
 338:../Project_Settings/Startup_Code/system_MKL25Z4.c ****       Divider = (((uint16_t)MCG->C5 & MCG_C5_PRDIV0_MASK) + 0x01U);
 300              		.loc 1 338 0
 301 0152 324B     		ldr	r3, .L35
 302 0154 1B79     		ldrb	r3, [r3, #4]
 303 0156 DBB2     		uxtb	r3, r3
 304 0158 1A1C     		mov	r2, r3
 305 015a 1F23     		mov	r3, #31
 306 015c 1340     		and	r3, r2
 307 015e 9AB2     		uxth	r2, r3
 308 0160 BB1C     		add	r3, r7, #2
 309 0162 0132     		add	r2, r2, #1
 310 0164 1A80     		strh	r2, [r3]
 339:../Project_Settings/Startup_Code/system_MKL25Z4.c ****       MCGOUTClock = (uint32_t)(CPU_XTAL_CLK_HZ / Divider); /* Calculate the PLL reference clock */
 311              		.loc 1 339 0
 312 0166 BB1C     		add	r3, r7, #2
 313 0168 1B88     		ldrh	r3, [r3]
 314 016a 2D48     		ldr	r0, .L35+4
 315 016c 191C     		mov	r1, r3
 316 016e FFF7FEFF 		bl	__aeabi_uidiv
 317 0172 031C     		mov	r3, r0
 318 0174 7B60     		str	r3, [r7, #4]
 340:../Project_Settings/Startup_Code/system_MKL25Z4.c ****       Divider = (((uint16_t)MCG->C6 & MCG_C6_VDIV0_MASK) + 24U);
 319              		.loc 1 340 0
 320 0176 294B     		ldr	r3, .L35
 321 0178 5B79     		ldrb	r3, [r3, #5]
 322 017a DBB2     		uxtb	r3, r3
 323 017c 1A1C     		mov	r2, r3
 324 017e 1F23     		mov	r3, #31
 325 0180 1340     		and	r3, r2
 326 0182 9AB2     		uxth	r2, r3
 327 0184 BB1C     		add	r3, r7, #2
 328 0186 1832     		add	r2, r2, #24
 329 0188 1A80     		strh	r2, [r3]
 341:../Project_Settings/Startup_Code/system_MKL25Z4.c ****       MCGOUTClock *= Divider;          /* Calculate the MCG output clock */
 330              		.loc 1 341 0
 331 018a BB1C     		add	r3, r7, #2
 332 018c 1A88     		ldrh	r2, [r3]
 333 018e 7B68     		ldr	r3, [r7, #4]
 334 0190 5343     		mul	r3, r2
 335 0192 7B60     		str	r3, [r7, #4]
 336 0194 32E0     		b	.L28
 337              	.L5:
 342:../Project_Settings/Startup_Code/system_MKL25Z4.c ****     } /* (!((MCG->C6 & MCG_C6_PLLS_MASK) == 0x00U)) */
 343:../Project_Settings/Startup_Code/system_MKL25Z4.c ****   } else if ((MCG->C1 & MCG_C1_CLKS_MASK) == 0x40U) {
 338              		.loc 1 343 0
 339 0196 214B     		ldr	r3, .L35
 340 0198 1B78     		ldrb	r3, [r3]
 341 019a DBB2     		uxtb	r3, r3
 342 019c 1A1C     		mov	r2, r3
 343 019e C023     		mov	r3, #192
 344 01a0 1340     		and	r3, r2
 345 01a2 402B     		cmp	r3, #64
 346 01a4 1ED1     		bne	.L29
 344:../Project_Settings/Startup_Code/system_MKL25Z4.c ****     /* Internal reference clock is selected */
 345:../Project_Settings/Startup_Code/system_MKL25Z4.c ****     if ((MCG->C2 & MCG_C2_IRCS_MASK) == 0x00U) {
 347              		.loc 1 345 0
 348 01a6 1D4B     		ldr	r3, .L35
 349 01a8 5B78     		ldrb	r3, [r3, #1]
 350 01aa DBB2     		uxtb	r3, r3
 351 01ac 1A1C     		mov	r2, r3
 352 01ae 0123     		mov	r3, #1
 353 01b0 1340     		and	r3, r2
 354 01b2 03D1     		bne	.L30
 346:../Project_Settings/Startup_Code/system_MKL25Z4.c ****       MCGOUTClock = CPU_INT_SLOW_CLK_HZ; /* Slow internal reference clock selected */
 355              		.loc 1 346 0
 356 01b4 8023     		mov	r3, #128
 357 01b6 1B02     		lsl	r3, r3, #8
 358 01b8 7B60     		str	r3, [r7, #4]
 359 01ba 1FE0     		b	.L28
 360              	.L30:
 347:../Project_Settings/Startup_Code/system_MKL25Z4.c ****     } else { /* (!((MCG->C2 & MCG_C2_IRCS_MASK) == 0x00U)) */
 348:../Project_Settings/Startup_Code/system_MKL25Z4.c ****       Divider = (uint16_t)(0x01LU << ((MCG->SC & MCG_SC_FCRDIV_MASK) >> MCG_SC_FCRDIV_SHIFT));
 361              		.loc 1 348 0
 362 01bc 174B     		ldr	r3, .L35
 363 01be 1B7A     		ldrb	r3, [r3, #8]
 364 01c0 DBB2     		uxtb	r3, r3
 365 01c2 1A1C     		mov	r2, r3
 366 01c4 0E23     		mov	r3, #14
 367 01c6 1340     		and	r3, r2
 368 01c8 5B08     		lsr	r3, r3, #1
 369 01ca 0122     		mov	r2, #1
 370 01cc 9A40     		lsl	r2, r2, r3
 371 01ce BB1C     		add	r3, r7, #2
 372 01d0 1A80     		strh	r2, [r3]
 349:../Project_Settings/Startup_Code/system_MKL25Z4.c ****       MCGOUTClock = (uint32_t) (CPU_INT_FAST_CLK_HZ / Divider); /* Fast internal reference clock se
 373              		.loc 1 349 0
 374 01d2 BB1C     		add	r3, r7, #2
 375 01d4 1B88     		ldrh	r3, [r3]
 376 01d6 1548     		ldr	r0, .L35+16
 377 01d8 191C     		mov	r1, r3
 378 01da FFF7FEFF 		bl	__aeabi_uidiv
 379 01de 031C     		mov	r3, r0
 380 01e0 7B60     		str	r3, [r7, #4]
 381 01e2 0BE0     		b	.L28
 382              	.L29:
 350:../Project_Settings/Startup_Code/system_MKL25Z4.c ****     } /* (!((MCG->C2 & MCG_C2_IRCS_MASK) == 0x00U)) */
 351:../Project_Settings/Startup_Code/system_MKL25Z4.c ****   } else if ((MCG->C1 & MCG_C1_CLKS_MASK) == 0x80U) {
 383              		.loc 1 351 0
 384 01e4 0D4B     		ldr	r3, .L35
 385 01e6 1B78     		ldrb	r3, [r3]
 386 01e8 DBB2     		uxtb	r3, r3
 387 01ea 1A1C     		mov	r2, r3
 388 01ec C023     		mov	r3, #192
 389 01ee 1340     		and	r3, r2
 390 01f0 802B     		cmp	r3, #128
 391 01f2 02D1     		bne	.L32
 352:../Project_Settings/Startup_Code/system_MKL25Z4.c ****     /* External reference clock is selected */
 353:../Project_Settings/Startup_Code/system_MKL25Z4.c ****     MCGOUTClock = CPU_XTAL_CLK_HZ;     /* System oscillator drives MCG clock */
 392              		.loc 1 353 0
 393 01f4 0A4B     		ldr	r3, .L35+4
 394 01f6 7B60     		str	r3, [r7, #4]
 395 01f8 00E0     		b	.L28
 396              	.L32:
 354:../Project_Settings/Startup_Code/system_MKL25Z4.c ****   } else { /* (!((MCG->C1 & MCG_C1_CLKS_MASK) == 0x80U)) */
 355:../Project_Settings/Startup_Code/system_MKL25Z4.c ****     /* Reserved value */
 356:../Project_Settings/Startup_Code/system_MKL25Z4.c ****     return;
 397              		.loc 1 356 0
 398 01fa 0CE0     		b	.L4
 399              	.L28:
 357:../Project_Settings/Startup_Code/system_MKL25Z4.c ****   } /* (!((MCG->C1 & MCG_C1_CLKS_MASK) == 0x80U)) */
 358:../Project_Settings/Startup_Code/system_MKL25Z4.c ****   SystemCoreClock = (MCGOUTClock / (0x01U + ((SIM->CLKDIV1 & SIM_CLKDIV1_OUTDIV1_MASK) >> SIM_CLKDI
 400              		.loc 1 358 0
 401 01fc 0C4A     		ldr	r2, .L35+20
 402 01fe 0D4B     		ldr	r3, .L35+24
 403 0200 D358     		ldr	r3, [r2, r3]
 404 0202 1B0F     		lsr	r3, r3, #28
 405 0204 0133     		add	r3, r3, #1
 406 0206 7868     		ldr	r0, [r7, #4]
 407 0208 191C     		mov	r1, r3
 408 020a FFF7FEFF 		bl	__aeabi_uidiv
 409 020e 031C     		mov	r3, r0
 410 0210 1A1C     		mov	r2, r3
 411 0212 094B     		ldr	r3, .L35+28
 412 0214 1A60     		str	r2, [r3]
 413              	.L4:
 359:../Project_Settings/Startup_Code/system_MKL25Z4.c **** }
 414              		.loc 1 359 0
 415 0216 BD46     		mov	sp, r7
 416 0218 02B0     		add	sp, sp, #8
 417              		@ sp needed
 418 021a 80BD     		pop	{r7, pc}
 419              	.L36:
 420              		.align	2
 421              	.L35:
 422 021c 00400640 		.word	1074151424
 423 0220 00127A00 		.word	8000000
 424 0224 95080000 		.word	2197
 425 0228 710B0000 		.word	2929
 426 022c 00093D00 		.word	4000000
 427 0230 00700440 		.word	1074032640
 428 0234 44100000 		.word	4164
 429 0238 00000000 		.word	SystemCoreClock
 430              		.cfi_endproc
 431              	.LFE34:
 433              		.text
 434              	.Letext0:
 435              		.file 2 "c:\\freescale\\kds_3.0.0\\toolchain\\arm-none-eabi\\include\\machine\\_default_types.h"
 436              		.file 3 "c:\\freescale\\kds_3.0.0\\toolchain\\arm-none-eabi\\include\\stdint.h"
 437              		.file 4 "../SDK/platform/devices/MKL25Z4/include/MKL25Z4.h"
DEFINED SYMBOLS
                            *ABS*:00000000 system_MKL25Z4.c
C:\Users\Marcos\AppData\Local\Temp\cc64lSyb.s:22     .data.SystemCoreClock:00000000 SystemCoreClock
C:\Users\Marcos\AppData\Local\Temp\cc64lSyb.s:19     .data.SystemCoreClock:00000000 $d
C:\Users\Marcos\AppData\Local\Temp\cc64lSyb.s:25     .text.SystemInit:00000000 $t
C:\Users\Marcos\AppData\Local\Temp\cc64lSyb.s:30     .text.SystemInit:00000000 SystemInit
C:\Users\Marcos\AppData\Local\Temp\cc64lSyb.s:54     .text.SystemInit:00000014 $d
C:\Users\Marcos\AppData\Local\Temp\cc64lSyb.s:60     .text.SystemCoreClockUpdate:00000000 $t
C:\Users\Marcos\AppData\Local\Temp\cc64lSyb.s:65     .text.SystemCoreClockUpdate:00000000 SystemCoreClockUpdate
C:\Users\Marcos\AppData\Local\Temp\cc64lSyb.s:422    .text.SystemCoreClockUpdate:0000021c $d
                     .debug_frame:00000010 $d
                           .group:00000000 wm4.0.4fc5d43945da5e93c3e97df46ba359a3
                           .group:00000000 wm4.features.h.22.6a4ca7cd053637cc1d0db6c16f39b2d7
                           .group:00000000 wm4._default_types.h.15.8b2cb27e528498f8ff711db085d6e489
                           .group:00000000 wm4.stdint.h.20.796e373797e732130a803d4c0338fa1b
                           .group:00000000 wm4.fsl_device_registers.h.48.205896530bddaf9f9434a0cf859f27ad
                           .group:00000000 wm4.MKL25Z4.h.102.e0f939bff553f65972f7f05b2a978168
                           .group:00000000 wm4.core_cm0plus.h.43.8d0a7c3b62d57d3de08e0cf260e796f5
                           .group:00000000 wm4.core_cmInstr.h.39.44064da3259031fd67bf776bc901489f
                           .group:00000000 wm4.core_cm0plus.h.160.93109123d7400be81e9e38af2ec243d9
                           .group:00000000 wm4.system_MKL25Z4.h.100.c681798c181a50448d403503ea0d6dd3
                           .group:00000000 wm4.MKL25Z4.h.284.1401abca5d90bb44a7a363ddee2e0514
                           .group:00000000 wm4.newlib.h.8.fec018e441fee7bfa1923812ad010f97
                           .group:00000000 wm4.config.h.212.4163ef2871a828c674038d036b081cfd
                           .group:00000000 wm4._ansi.h.23.2147fde150631f5584b9dc29b914d1b8
                           .group:00000000 wm4.stdlib.h.13.4ed386f5c1a80d71e72172885d946ef2
                           .group:00000000 wm4.stddef.h.184.aa65fb7281d578229bbad41b91862635
                           .group:00000000 wm4.stddef.h.39.d0197034aa5fd947cae140b9289e6734
                           .group:00000000 wm4.lock.h.2.9bc98482741e5e2a9450b12934a684ea
                           .group:00000000 wm4._types.h.54.d3d34a3b7f3cc230cd159baf022b4b08
                           .group:00000000 wm4.stddef.h.158.61317cdbfb4026324507d123a50b0fd6
                           .group:00000000 wm4.reent.h.17.8bd9e4098e0428508c282cad794fae43
                           .group:00000000 wm4.alloca.h.8.dfc0c703c47ec3e69746825b17d9e66d
                           .group:00000000 wm4.stdlib.h.53.1a82a3cc35cb0a04319c41bcf41d2a02
                           .group:00000000 wm4.fsl_bitaccess.h.78.9caeef803fd992899b964c3693d1446e
                           .group:00000000 wm4.MKL25Z4_extension.h.123.8a6ecbe1f4aa9c3878ea5751dada233d
                           .group:00000000 wm4.MKL25Z4_features.h.77.f6e11aac8501a33d352798d42afc2cd7

UNDEFINED SYMBOLS
__aeabi_uidiv
